{
  "_format": "hh-sol-artifact-1",
  "contractName": "AimStaking",
  "sourceName": "contracts/pool/AimStaking.sol",
  "abi": [
    {
      "inputs": [],
      "name": "AccessControlBadConfirmation",
      "type": "error"
    },
    {
      "inputs": [
        {
          "internalType": "address",
          "name": "account",
          "type": "address"
        },
        {
          "internalType": "bytes32",
          "name": "neededRole",
          "type": "bytes32"
        }
      ],
      "name": "AccessControlUnauthorizedAccount",
      "type": "error"
    },
    {
      "inputs": [],
      "name": "InvalidInitialization",
      "type": "error"
    },
    {
      "inputs": [],
      "name": "NotInitializing",
      "type": "error"
    },
    {
      "inputs": [],
      "name": "ReentrancyGuardReentrantCall",
      "type": "error"
    },
    {
      "anonymous": false,
      "inputs": [
        {
          "indexed": false,
          "internalType": "uint256",
          "name": "duration",
          "type": "uint256"
        }
      ],
      "name": "DurationOptionAdded",
      "type": "event"
    },
    {
      "anonymous": false,
      "inputs": [
        {
          "indexed": false,
          "internalType": "uint256",
          "name": "duration",
          "type": "uint256"
        }
      ],
      "name": "DurationOptionRemoved",
      "type": "event"
    },
    {
      "anonymous": false,
      "inputs": [
        {
          "indexed": false,
          "internalType": "uint256",
          "name": "newRate",
          "type": "uint256"
        }
      ],
      "name": "EmergencyUnstakeFeeRateSet",
      "type": "event"
    },
    {
      "anonymous": false,
      "inputs": [
        {
          "indexed": false,
          "internalType": "uint256",
          "name": "stakeId",
          "type": "uint256"
        },
        {
          "indexed": true,
          "internalType": "address",
          "name": "user",
          "type": "address"
        },
        {
          "indexed": false,
          "internalType": "uint256",
          "name": "amount",
          "type": "uint256"
        }
      ],
      "name": "EmergencyUnstaked",
      "type": "event"
    },
    {
      "anonymous": false,
      "inputs": [
        {
          "indexed": true,
          "internalType": "address",
          "name": "newWallet",
          "type": "address"
        }
      ],
      "name": "FeeWalletSet",
      "type": "event"
    },
    {
      "anonymous": false,
      "inputs": [
        {
          "indexed": false,
          "internalType": "uint64",
          "name": "version",
          "type": "uint64"
        }
      ],
      "name": "Initialized",
      "type": "event"
    },
    {
      "anonymous": false,
      "inputs": [
        {
          "indexed": false,
          "internalType": "bytes32",
          "name": "projectId",
          "type": "bytes32"
        }
      ],
      "name": "ProjectRegistered",
      "type": "event"
    },
    {
      "anonymous": false,
      "inputs": [
        {
          "indexed": true,
          "internalType": "bytes32",
          "name": "projectId",
          "type": "bytes32"
        },
        {
          "indexed": false,
          "internalType": "address",
          "name": "tokenAddress",
          "type": "address"
        }
      ],
      "name": "ProjectStakingTokenSet",
      "type": "event"
    },
    {
      "anonymous": false,
      "inputs": [
        {
          "indexed": false,
          "internalType": "bytes32",
          "name": "projectId",
          "type": "bytes32"
        }
      ],
      "name": "ProjectUnregistered",
      "type": "event"
    },
    {
      "anonymous": false,
      "inputs": [
        {
          "indexed": true,
          "internalType": "bytes32",
          "name": "role",
          "type": "bytes32"
        },
        {
          "indexed": true,
          "internalType": "bytes32",
          "name": "previousAdminRole",
          "type": "bytes32"
        },
        {
          "indexed": true,
          "internalType": "bytes32",
          "name": "newAdminRole",
          "type": "bytes32"
        }
      ],
      "name": "RoleAdminChanged",
      "type": "event"
    },
    {
      "anonymous": false,
      "inputs": [
        {
          "indexed": true,
          "internalType": "bytes32",
          "name": "role",
          "type": "bytes32"
        },
        {
          "indexed": true,
          "internalType": "address",
          "name": "account",
          "type": "address"
        },
        {
          "indexed": true,
          "internalType": "address",
          "name": "sender",
          "type": "address"
        }
      ],
      "name": "RoleGranted",
      "type": "event"
    },
    {
      "anonymous": false,
      "inputs": [
        {
          "indexed": true,
          "internalType": "bytes32",
          "name": "role",
          "type": "bytes32"
        },
        {
          "indexed": true,
          "internalType": "address",
          "name": "account",
          "type": "address"
        },
        {
          "indexed": true,
          "internalType": "address",
          "name": "sender",
          "type": "address"
        }
      ],
      "name": "RoleRevoked",
      "type": "event"
    },
    {
      "anonymous": false,
      "inputs": [
        {
          "indexed": false,
          "internalType": "uint256",
          "name": "stakeId",
          "type": "uint256"
        },
        {
          "indexed": true,
          "internalType": "address",
          "name": "user",
          "type": "address"
        },
        {
          "indexed": false,
          "internalType": "uint256",
          "name": "amount",
          "type": "uint256"
        },
        {
          "indexed": true,
          "internalType": "bytes32",
          "name": "projectId",
          "type": "bytes32"
        },
        {
          "indexed": false,
          "internalType": "uint256",
          "name": "duration",
          "type": "uint256"
        }
      ],
      "name": "Staked",
      "type": "event"
    },
    {
      "anonymous": false,
      "inputs": [
        {
          "indexed": false,
          "internalType": "uint256",
          "name": "newRate",
          "type": "uint256"
        }
      ],
      "name": "UnstakeFeeRateSet",
      "type": "event"
    },
    {
      "anonymous": false,
      "inputs": [
        {
          "indexed": false,
          "internalType": "uint256",
          "name": "stakeId",
          "type": "uint256"
        },
        {
          "indexed": true,
          "internalType": "address",
          "name": "user",
          "type": "address"
        },
        {
          "indexed": false,
          "internalType": "uint256",
          "name": "amount",
          "type": "uint256"
        }
      ],
      "name": "Unstaked",
      "type": "event"
    },
    {
      "inputs": [],
      "name": "DEFAULT_ADMIN_ROLE",
      "outputs": [
        {
          "internalType": "bytes32",
          "name": "",
          "type": "bytes32"
        }
      ],
      "stateMutability": "view",
      "type": "function"
    },
    {
      "inputs": [],
      "name": "MANAGER_ROLE",
      "outputs": [
        {
          "internalType": "bytes32",
          "name": "",
          "type": "bytes32"
        }
      ],
      "stateMutability": "view",
      "type": "function"
    },
    {
      "inputs": [
        {
          "internalType": "uint256",
          "name": "durationInDays",
          "type": "uint256"
        }
      ],
      "name": "addDurationOption",
      "outputs": [],
      "stateMutability": "nonpayable",
      "type": "function"
    },
    {
      "inputs": [
        {
          "internalType": "uint256",
          "name": "",
          "type": "uint256"
        }
      ],
      "name": "durationOptions",
      "outputs": [
        {
          "internalType": "bool",
          "name": "",
          "type": "bool"
        }
      ],
      "stateMutability": "view",
      "type": "function"
    },
    {
      "inputs": [
        {
          "internalType": "uint256",
          "name": "stakeId",
          "type": "uint256"
        }
      ],
      "name": "emergencyUnstake",
      "outputs": [],
      "stateMutability": "nonpayable",
      "type": "function"
    },
    {
      "inputs": [],
      "name": "emergencyUnstakeFeeRate",
      "outputs": [
        {
          "internalType": "uint256",
          "name": "",
          "type": "uint256"
        }
      ],
      "stateMutability": "view",
      "type": "function"
    },
    {
      "inputs": [],
      "name": "feeWallet",
      "outputs": [
        {
          "internalType": "address",
          "name": "",
          "type": "address"
        }
      ],
      "stateMutability": "view",
      "type": "function"
    },
    {
      "inputs": [
        {
          "internalType": "address",
          "name": "user",
          "type": "address"
        }
      ],
      "name": "getActiveUserStakes",
      "outputs": [
        {
          "internalType": "uint256[]",
          "name": "",
          "type": "uint256[]"
        }
      ],
      "stateMutability": "view",
      "type": "function"
    },
    {
      "inputs": [
        {
          "internalType": "bytes32",
          "name": "projectId",
          "type": "bytes32"
        }
      ],
      "name": "getProjectStakes",
      "outputs": [
        {
          "internalType": "uint256[]",
          "name": "",
          "type": "uint256[]"
        }
      ],
      "stateMutability": "view",
      "type": "function"
    },
    {
      "inputs": [
        {
          "internalType": "bytes32",
          "name": "role",
          "type": "bytes32"
        }
      ],
      "name": "getRoleAdmin",
      "outputs": [
        {
          "internalType": "bytes32",
          "name": "",
          "type": "bytes32"
        }
      ],
      "stateMutability": "view",
      "type": "function"
    },
    {
      "inputs": [
        {
          "internalType": "bytes32",
          "name": "role",
          "type": "bytes32"
        },
        {
          "internalType": "uint256",
          "name": "index",
          "type": "uint256"
        }
      ],
      "name": "getRoleMember",
      "outputs": [
        {
          "internalType": "address",
          "name": "",
          "type": "address"
        }
      ],
      "stateMutability": "view",
      "type": "function"
    },
    {
      "inputs": [
        {
          "internalType": "bytes32",
          "name": "role",
          "type": "bytes32"
        }
      ],
      "name": "getRoleMemberCount",
      "outputs": [
        {
          "internalType": "uint256",
          "name": "",
          "type": "uint256"
        }
      ],
      "stateMutability": "view",
      "type": "function"
    },
    {
      "inputs": [
        {
          "internalType": "bytes32",
          "name": "role",
          "type": "bytes32"
        }
      ],
      "name": "getRoleMembers",
      "outputs": [
        {
          "internalType": "address[]",
          "name": "",
          "type": "address[]"
        }
      ],
      "stateMutability": "view",
      "type": "function"
    },
    {
      "inputs": [
        {
          "internalType": "address",
          "name": "user",
          "type": "address"
        }
      ],
      "name": "getUserStakes",
      "outputs": [
        {
          "internalType": "uint256[]",
          "name": "",
          "type": "uint256[]"
        }
      ],
      "stateMutability": "view",
      "type": "function"
    },
    {
      "inputs": [
        {
          "internalType": "bytes32",
          "name": "role",
          "type": "bytes32"
        },
        {
          "internalType": "address",
          "name": "account",
          "type": "address"
        }
      ],
      "name": "grantRole",
      "outputs": [],
      "stateMutability": "nonpayable",
      "type": "function"
    },
    {
      "inputs": [
        {
          "internalType": "bytes32",
          "name": "role",
          "type": "bytes32"
        },
        {
          "internalType": "address",
          "name": "account",
          "type": "address"
        }
      ],
      "name": "hasRole",
      "outputs": [
        {
          "internalType": "bool",
          "name": "",
          "type": "bool"
        }
      ],
      "stateMutability": "view",
      "type": "function"
    },
    {
      "inputs": [
        {
          "internalType": "address",
          "name": "admin",
          "type": "address"
        }
      ],
      "name": "initialize",
      "outputs": [],
      "stateMutability": "nonpayable",
      "type": "function"
    },
    {
      "inputs": [
        {
          "internalType": "bytes32",
          "name": "",
          "type": "bytes32"
        }
      ],
      "name": "projectStakingTokens",
      "outputs": [
        {
          "internalType": "address",
          "name": "",
          "type": "address"
        }
      ],
      "stateMutability": "view",
      "type": "function"
    },
    {
      "inputs": [
        {
          "internalType": "bytes32",
          "name": "projectId",
          "type": "bytes32"
        },
        {
          "internalType": "address",
          "name": "stakingTokenAddress",
          "type": "address"
        }
      ],
      "name": "registerProject",
      "outputs": [],
      "stateMutability": "nonpayable",
      "type": "function"
    },
    {
      "inputs": [
        {
          "internalType": "bytes32",
          "name": "",
          "type": "bytes32"
        }
      ],
      "name": "registeredProjects",
      "outputs": [
        {
          "internalType": "bool",
          "name": "",
          "type": "bool"
        }
      ],
      "stateMutability": "view",
      "type": "function"
    },
    {
      "inputs": [
        {
          "internalType": "uint256",
          "name": "durationInDays",
          "type": "uint256"
        }
      ],
      "name": "removeDurationOption",
      "outputs": [],
      "stateMutability": "nonpayable",
      "type": "function"
    },
    {
      "inputs": [
        {
          "internalType": "bytes32",
          "name": "role",
          "type": "bytes32"
        },
        {
          "internalType": "address",
          "name": "callerConfirmation",
          "type": "address"
        }
      ],
      "name": "renounceRole",
      "outputs": [],
      "stateMutability": "nonpayable",
      "type": "function"
    },
    {
      "inputs": [
        {
          "internalType": "bytes32",
          "name": "role",
          "type": "bytes32"
        },
        {
          "internalType": "address",
          "name": "account",
          "type": "address"
        }
      ],
      "name": "revokeRole",
      "outputs": [],
      "stateMutability": "nonpayable",
      "type": "function"
    },
    {
      "inputs": [
        {
          "internalType": "uint256",
          "name": "_emergencyUnstakeFeeRate",
          "type": "uint256"
        }
      ],
      "name": "setEmergencyUnstakeFeeRate",
      "outputs": [],
      "stateMutability": "nonpayable",
      "type": "function"
    },
    {
      "inputs": [
        {
          "internalType": "address",
          "name": "_feeWallet",
          "type": "address"
        }
      ],
      "name": "setFeeWallet",
      "outputs": [],
      "stateMutability": "nonpayable",
      "type": "function"
    },
    {
      "inputs": [
        {
          "internalType": "bytes32",
          "name": "projectId",
          "type": "bytes32"
        },
        {
          "internalType": "address",
          "name": "stakingTokenAddress",
          "type": "address"
        }
      ],
      "name": "setProjectStakingToken",
      "outputs": [],
      "stateMutability": "nonpayable",
      "type": "function"
    },
    {
      "inputs": [
        {
          "internalType": "uint256",
          "name": "_unstakeFeeRate",
          "type": "uint256"
        }
      ],
      "name": "setUnstakeFeeRate",
      "outputs": [],
      "stateMutability": "nonpayable",
      "type": "function"
    },
    {
      "inputs": [
        {
          "internalType": "uint256",
          "name": "amount",
          "type": "uint256"
        },
        {
          "internalType": "uint256",
          "name": "durationInDays",
          "type": "uint256"
        },
        {
          "internalType": "bytes32",
          "name": "projectId",
          "type": "bytes32"
        }
      ],
      "name": "stake",
      "outputs": [],
      "stateMutability": "nonpayable",
      "type": "function"
    },
    {
      "inputs": [
        {
          "internalType": "uint256",
          "name": "",
          "type": "uint256"
        }
      ],
      "name": "stakes",
      "outputs": [
        {
          "internalType": "uint256",
          "name": "stakeId",
          "type": "uint256"
        },
        {
          "internalType": "address",
          "name": "user",
          "type": "address"
        },
        {
          "internalType": "uint256",
          "name": "amount",
          "type": "uint256"
        },
        {
          "internalType": "bytes32",
          "name": "projectId",
          "type": "bytes32"
        },
        {
          "internalType": "address",
          "name": "stakingToken",
          "type": "address"
        },
        {
          "internalType": "uint256",
          "name": "stakedAt",
          "type": "uint256"
        },
        {
          "internalType": "uint256",
          "name": "duration",
          "type": "uint256"
        },
        {
          "internalType": "uint256",
          "name": "unlockedAt",
          "type": "uint256"
        },
        {
          "internalType": "enum AimStaking.StakeStatus",
          "name": "status",
          "type": "uint8"
        }
      ],
      "stateMutability": "view",
      "type": "function"
    },
    {
      "inputs": [
        {
          "internalType": "bytes4",
          "name": "interfaceId",
          "type": "bytes4"
        }
      ],
      "name": "supportsInterface",
      "outputs": [
        {
          "internalType": "bool",
          "name": "",
          "type": "bool"
        }
      ],
      "stateMutability": "view",
      "type": "function"
    },
    {
      "inputs": [
        {
          "internalType": "bytes32",
          "name": "projectId",
          "type": "bytes32"
        }
      ],
      "name": "unregisterProject",
      "outputs": [],
      "stateMutability": "nonpayable",
      "type": "function"
    },
    {
      "inputs": [
        {
          "internalType": "uint256",
          "name": "stakeId",
          "type": "uint256"
        }
      ],
      "name": "unstake",
      "outputs": [],
      "stateMutability": "nonpayable",
      "type": "function"
    },
    {
      "inputs": [],
      "name": "unstakeFeeRate",
      "outputs": [
        {
          "internalType": "uint256",
          "name": "",
          "type": "uint256"
        }
      ],
      "stateMutability": "view",
      "type": "function"
    }
  ],
  "bytecode": "0x60808060405234601557612174908161001b8239f35b600080fdfe6080604052600436101561001257600080fd5b60003560e01c8063012ce5011461162f57806301ffc9a7146115bf5780630c1e24631461149e57806312d43ae914611410578063248a9ca3146113ea57806325eda777146113b65780632ad9b0d8146112395780632e17de7814610ffc5780632f2ff15d14610fcb57806336568abe14610f855780633d0a42e714610c1e578063557925d714610b6457806367efea2e14610b465780636ae2883314610b28578063774e27c314610ace578063842e298114610a575780639010d07c14610a0357806390d49b9d1461095657806391d14854146108fc5780639770cd49146108cb578063a217fddf146108af578063a3246ad3146107ed578063baea56b1146107bc578063be38516b14610762578063c4d66de814610521578063ca15c873146104e8578063d547741f146104b0578063d5a44f86146103fa578063df54e4a31461035e578063ec87621c14610335578063f25f4b561461030c578063f2c2ea17146102055763f7e72b8d1461018757600080fd5b34610200576020366003190112610200576004356000526006602052604060002060405190816020825491828152019160005260206000209060005b8181106101ea576101e6856101da8187038261191d565b60405191829182611853565b0390f35b82548452602090930192600192830192016101c3565b600080fd5b3461020057602036600319011261020057600435610221611b56565b80156102c75780600052600860205260ff60406000205416610282576020817f457e95d580cfbe0319df538ce61e492cefc12446b52b09b5ae5122cf32efda7892600052600882526040600020600160ff19825416179055604051908152a1005b60405162461bcd60e51b815260206004820152601e60248201527f4475726174696f6e206f7074696f6e20616c72656164792065786973747300006044820152606490fd5b60405162461bcd60e51b815260206004820152601960248201527f4475726174696f6e206d75737420626520706f736974697665000000000000006044820152606490fd5b34610200576000366003190112610200576000546040516001600160a01b039091168152602090f35b346102005760003660031901126102005760206040516000805160206120bf8339815191528152f35b34610200576040366003190112610200576004357f8c6cd15b4c6cc3725c46b7b687badd0b58c0507927aa7cc0431d6c5be4412268602061039d611827565b6103a5611b56565b83600052600782526103be60ff604060002054166119c2565b6001600160a01b03166103d2811515611964565b83600052600382526040600020816001600160601b0360a01b825416179055604051908152a2005b346102005760203660031901126102005760043560005260046020526040600020805460018060a01b03600183015416916002810154600382015460018060a01b0360048401541660058401549160068501549360ff600860078801549701541697604051978852602088015260408701526060860152608085015260a084015260c083015260e0820152600382101561049a5761012091610100820152f35b634e487b7160e01b600052602160045260246000fd5b34610200576040366003190112610200576104e66004356104cf611827565b906104e16104dc82611a07565b611bb6565b611c48565b005b346102005760203660031901126102005760043560005260008051602061209f8339815191526020526020604060002054604051908152f35b346102005760203660031901126102005761053a61183d565b60008051602061211f833981519152549060ff8260401c16159167ffffffffffffffff81168015908161075a575b6001149081610750575b159081610747575b506107365767ffffffffffffffff19811660011760008051602061211f8339815191525582610709575b506105ad611f43565b6105b5611f43565b60016000805160206120ff833981519152556105d081611c8c565b6106ba575b6105de81611d3e565b61065d575b60018060a01b03166001600160601b0360a01b600054161760005561060457005b68ff00000000000000001960008051602061211f833981519152541660008051602061211f833981519152557fc7f505b2f371ae2175ee4913f4499e1f2633a7b5936321eed1cdaeb6115181d2602060405160018152a1005b6000805160206120bf83398151915260005260008051602061209f8339815191526020526106b46001600160a01b0382167f4100344b6aa56dacd4c22fd3b2e50ba7459cdb2cf0a0bdb443a7a9a08e239af6611f71565b506105e3565b6000805260008051602061209f8339815191526020526107036001600160a01b0382167f615f0f9e84155bea8cc509fe18befeb1baf65611e38a6ba60964480fb29dfd44611f71565b506105d5565b68ffffffffffffffffff1916680100000000000000011760008051602061211f83398151915255826105a4565b63f92ee8a960e01b60005260046000fd5b9050158461057a565b303b159150610572565b849150610568565b34610200576020366003190112610200577f3aa70af94a2a19d97bb216ab0dac6c3a13b7f1901b86de8b65dbabfb47838a2860206004356107a1611b56565b6107af612710821115611ace565b80600255604051908152a1005b34610200576020366003190112610200576004356000526008602052602060ff604060002054166040519015158152f35b346102005760203660031901126102005760043560005260008051602061209f83398151915260205260406000206040518060208354918281520190819360005260206000209060005b818110610899575050508161084d91038261191d565b6040519182916020830190602084525180915260408301919060005b818110610877575050500390f35b82516001600160a01b0316845285945060209384019390920191600101610869565b8254845260209093019260019283019201610837565b3461020057600036600319011261020057602060405160008152f35b34610200576020366003190112610200576004356000526007602052602060ff604060002054166040519015158152f35b3461020057604036600319011261020057610915611827565b6004356000526000805160206120df83398151915260205260406000209060018060a01b0316600052602052602060ff604060002054166040519015158152f35b346102005760203660031901126102005761096f61183d565b610977611b56565b6001600160a01b031680156109be57600080546001600160a01b031916821781557f0439162378682c6392215882cf21e973f49063ed3530a31d763835a2e9f6d17e9080a2005b60405162461bcd60e51b815260206004820152601a60248201527f496e76616c6964206665652077616c6c657420616464726573730000000000006044820152606490fd5b346102005760403660031901126102005760043560005260008051602061209f8339815191526020526020610a3e6024356040600020611a79565b905460405160039290921b1c6001600160a01b03168152f35b34610200576020366003190112610200576001600160a01b03610a7861183d565b166000526005602052604060002060405190816020825491828152019160005260206000209060005b818110610ab8576101e6856101da8187038261191d565b8254845260209093019260019283019201610aa1565b34610200576020366003190112610200577fd61f88d1cc67f5a507cec54d6e22ec95aa23d3e2fa62ae91f31d72af7538e2e46020600435610b0d611b56565b610b1b612710821115611ace565b80600155604051908152a1005b34610200576000366003190112610200576020600154604051908152f35b34610200576000366003190112610200576020600254604051908152f35b3461020057602036600319011261020057600435610b80611b56565b80600052600860205260ff6040600020541615610bd9576020817ff278be4ce3ce798f71a002b9ba81aa1a12f71adf91e51c3ab61c4d2113aac5189260005260088252604060002060ff198154169055604051908152a1005b60405162461bcd60e51b815260206004820152601960248201527f4475726174696f6e206f7074696f6e206e6f7420666f756e64000000000000006044820152606490fd5b3461020057606036600319011261020057602435604435600435610c40611b1a565b8015610f4b5782600052600860205260ff6040600020541615610f1357816000526007602052610c7760ff604060002054166119c2565b6000828152600360205260409020546001600160a01b0316928315610ec4576040516323b872dd60e01b8152336004820152306024820152604481018390526020816064816000895af18015610eb857610e8b575b50610cd8600954611a52565b918260095562015180820291808304620151801490151715610e7557814201804211610e755760405161012081019181831067ffffffffffffffff841117610e5f576040928352858252336020808401918252838501868152606085018a8152608086019b8c524260a0870190815260c087018a815260e08801968752600061010089018181528d82526004968790529990209751885594516001880180546001600160a01b03199081166001600160a01b03938416179091559351600289015591516003808901919091559c519387018054909316939091169290921790555160058401555160068301555160078201559051956008919091019086101561049a5760009560ff801983541691161790553385526005602052610dff8360408720611a91565b8385526006602052610e148360408720611a91565b604051928352602083015260408201527ffda8c7d12127b202625951152f195c7a03f457f2b1fdcff320a6095e99fcd1f960603392a360016000805160206120ff8339815191525580f35b634e487b7160e01b600052604160045260246000fd5b634e487b7160e01b600052601160045260246000fd5b610eac9060203d602011610eb1575b610ea4818361191d565b81019061193f565b610ccc565b503d610e9a565b6040513d6000823e3d90fd5b60405162461bcd60e51b815260206004820152602160248201527f5374616b696e6720746f6b656e206e6f742073657420666f722070726f6a65636044820152601d60fa1b6064820152608490fd5b60405162461bcd60e51b815260206004820152601060248201526f24b73b30b634b210323ab930ba34b7b760811b6044820152606490fd5b60405162461bcd60e51b81526020600482015260126024820152710416d6f756e74206d757374206265203e20360741b6044820152606490fd5b3461020057604036600319011261020057610f9e611827565b336001600160a01b03821603610fba576104e690600435611c48565b63334bd91960e11b60005260046000fd5b34610200576040366003190112610200576104e6600435610fea611827565b90610ff76104dc82611a07565b611c00565b3461020057602036600319011261020057600435611018611b1a565b806000526004602052604060002061103d60018060a01b03600183015416331461188d565b6008810160ff815416600381101561049a5761105990156118cb565b600782015442106111ff57600160ff198254161790556002810190815490600154801515806111eb575b611137575b5060049081015460405163a9059cbb60e01b8152339281019290925260248201929092529060209082906001600160a01b031681600081604481015b03925af18015610eb85761111a575b505460405191825260208201527f37375b03d8924bd8f076f11f8411b9962aa5c02fb489021507bc6bb6f850e36560403392a260016000805160206120ff83398151915255005b6111329060203d602011610eb157610ea4818361191d565b6110d3565b611144612710918461190a565b049182611167575b60209161115e6000946110c493611957565b93509150611088565b6004828101546000805460405163a9059cbb60e01b81526001600160a01b0391821694810194909452602484018790529394929360209285926044928492165af18015610eb8576000946020946110c49461115e936111ce575b509350945050915061114c565b6111e490873d8911610eb157610ea4818361191d565b50896111c1565b506000546001600160a01b03161515611083565b60405162461bcd60e51b815260206004820152601260248201527114dd185ad9481cdd1a5b1b081b1bd8dad95960721b6044820152606490fd5b34610200576020366003190112610200576001600160a01b0361125a61183d565b16600052600560205260406000206040518082602082945493848152019060005260206000209260005b81811061139d5750506112999250038261191d565b600090815b81518110156112f1576112b18183611a28565b51600052600460205260ff60086040600020015416600381101561049a57156112dd575b60010161129e565b916112e9600191611a52565b9290506112d5565b50906112fc81611a61565b9061130a604051928361191d565b808252611319601f1991611a61565b0136602083013760009060005b835181101561138f576113398185611a28565b51600052600460205260ff60086040600020015416600381101561049a5715611365575b600101611326565b916113876001916113768587611a28565b516113818286611a28565b52611a52565b92905061135d565b604051806101e68482611853565b8454835260019485019486945060209093019201611284565b34610200576020366003190112610200576004356000526003602052602060018060a01b0360406000205416604051908152f35b34610200576020366003190112610200576020611408600435611a07565b604051908152f35b34610200576020366003190112610200577f42ae85fa6215678269ae7bc130c9cbddbc56e4bf7a6af1b1b913df7f0a4036e8602060043561144f611b56565b806000526007825261146860ff604060002054166119c2565b6000818152600783526040808220805460ff19169055828252600384529081902080546001600160a01b031916905551908152a1005b34610200576040366003190112610200576004356114ba611827565b6114c2611b56565b81600052600760205260ff6040600020541661157a577f8c6cd15b4c6cc3725c46b7b687badd0b58c0507927aa7cc0431d6c5be4412268906020906001600160a01b0316611511811515611964565b83600052600782526040600020600160ff1982541617905583600052600382526040600020816001600160601b0360a01b8254161790557ff65f77413af114e41a04869979e1c1fc91eab4c12feab396cfd1610389db6dab82604051868152a1604051908152a2005b60405162461bcd60e51b815260206004820152601a60248201527f50726f6a65637420616c726561647920726567697374657265640000000000006044820152606490fd5b346102005760203660031901126102005760043563ffffffff60e01b811680910361020057602090635a05180f60e01b8114908115611604575b506040519015158152f35b637965db0b60e01b81149150811561161e575b50826115f9565b6301ffc9a760e01b14905082611617565b346102005760203660031901126102005760043561164b611b1a565b806000526004602052604060002061167060018060a01b03600183015416331461188d565b6008810160ff815416600381101561049a5761168c90156118cb565b600260ff19825416179055600281019081549060025480151580611813575b61175f575b5060049081015460405163a9059cbb60e01b8152339281019290925260248201929092529060209082906001600160a01b031681600081604481015b03925af18015610eb857611742575b505460405191825260208201527f7e57bf75f7b88145c77b9823b88304864cc96adf3623d6e8b23accc7eee372c360403392a260016000805160206120ff83398151915255005b61175a9060203d602011610eb157610ea4818361191d565b6116fb565b61176c612710918461190a565b04918261178f575b6020916117866000946116ec93611957565b935091506116b0565b6004828101546000805460405163a9059cbb60e01b81526001600160a01b0391821694810194909452602484018790529394929360209285926044928492165af18015610eb8576000946020946116ec94611786936117f6575b5093509450509150611774565b61180c90873d8911610eb157610ea4818361191d565b50896117e9565b506000546001600160a01b031615156116ab565b602435906001600160a01b038216820361020057565b600435906001600160a01b038216820361020057565b602060408183019282815284518094520192019060005b8181106118775750505090565b825184526020938401939092019160010161186a565b1561189457565b60405162461bcd60e51b815260206004820152600f60248201526e2737ba1039ba30b5b29037bbb732b960891b6044820152606490fd5b156118d257565b60405162461bcd60e51b815260206004820152601060248201526f5374616b65206e6f742061637469766560801b6044820152606490fd5b81810292918115918404141715610e7557565b90601f8019910116810190811067ffffffffffffffff821117610e5f57604052565b90816020910312610200575180151581036102005790565b91908203918211610e7557565b1561196b57565b60405162461bcd60e51b815260206004820152602960248201527f41696d5374616b696e673a20496e76616c6964207374616b696e6720746f6b656044820152686e206164647265737360b81b6064820152608490fd5b156119c957565b60405162461bcd60e51b8152602060048201526016602482015275141c9bda9958dd081b9bdd081c9959da5cdd195c995960521b6044820152606490fd5b6000526000805160206120df83398151915260205260016040600020015490565b8051821015611a3c5760209160051b010190565b634e487b7160e01b600052603260045260246000fd5b6000198114610e755760010190565b67ffffffffffffffff8111610e5f5760051b60200190565b8054821015611a3c5760005260206000200190600090565b805490600160401b821015610e5f5781611ab3916001611aca94018155611a79565b819391549060031b91821b91600019901b19161790565b9055565b15611ad557565b60405162461bcd60e51b815260206004820152601b60248201527f46656520726174652063616e6e6f7420657863656564203130302500000000006044820152606490fd5b60026000805160206120ff8339815191525414611b455760026000805160206120ff83398151915255565b633ee5aeb560e01b60005260046000fd5b3360009081527f06484cc59dc38e4f67c31122333a17ca81b3ca18cdf02bfc298072fa52b0316a602052604090205460ff1615611b8f57565b63e2517d3f60e01b600052336004526000805160206120bf83398151915260245260446000fd5b60008181526000805160206120df8339815191526020908152604080832033845290915290205460ff1615611be85750565b63e2517d3f60e01b6000523360045260245260446000fd5b611c0a8282611dfa565b9182611c1557505090565b600091825260008051602061209f8339815191526020526040909120611c44916001600160a01b031690611f71565b5090565b611c528282611ea3565b9182611c5d57505090565b600091825260008051602061209f8339815191526020526040909120611c44916001600160a01b031690611fcb565b6001600160a01b03811660009081527fb7db2dd08fcb62d0c9e08c51941cae53c267786a0b75803fb7960902fc8ef97d602052604090205460ff16611d38576001600160a01b031660008181527fb7db2dd08fcb62d0c9e08c51941cae53c267786a0b75803fb7960902fc8ef97d60205260408120805460ff191660011790553391907f2f8788117e7eff1d82e926ec794901d17c78024a50270940304540a733656f0d8180a4600190565b50600090565b6001600160a01b03811660009081527f06484cc59dc38e4f67c31122333a17ca81b3ca18cdf02bfc298072fa52b0316a602052604090205460ff16611d38576001600160a01b031660008181527f06484cc59dc38e4f67c31122333a17ca81b3ca18cdf02bfc298072fa52b0316a60205260408120805460ff191660011790553391906000805160206120bf833981519152907f2f8788117e7eff1d82e926ec794901d17c78024a50270940304540a733656f0d9080a4600190565b60008181526000805160206120df833981519152602090815260408083206001600160a01b038616845290915290205460ff16611e9c5760008181526000805160206120df833981519152602090815260408083206001600160a01b0395909516808452949091528120805460ff19166001179055339291907f2f8788117e7eff1d82e926ec794901d17c78024a50270940304540a733656f0d9080a4600190565b5050600090565b60008181526000805160206120df833981519152602090815260408083206001600160a01b038616845290915290205460ff1615611e9c5760008181526000805160206120df833981519152602090815260408083206001600160a01b0395909516808452949091528120805460ff19169055339291907ff6391f5c32d9c69d2a47ea670b442974b53935d1edc7fd64eb21e047a839171b9080a4600190565b60ff60008051602061211f8339815191525460401c1615611f6057565b631afcd79f60e31b60005260046000fd5b6001810190826000528160205260406000205415600014611fc3578054600160401b811015610e5f57611fae611ab3826001879401855584611a79565b90555491600052602052604060002055600190565b505050600090565b9060018201918160005282602052604060002054801515600014612095576000198101818111610e75578254600019810191908211610e755781810361205e575b505050805480156120485760001901906120268282611a79565b8154906000199060031b1b191690555560005260205260006040812055600190565b634e487b7160e01b600052603160045260246000fd5b61207e61206e611ab39386611a79565b90549060031b1c92839286611a79565b90556000528360205260406000205538808061200c565b5050505060009056fec1f6fe24621ce81ec5827caf0253cadb74709b061630e6b55e82371705932000241ecf16d79d0f8dbfb92cbc07fe17840425976cf0667f022fe9877caa831b0802dd7bc7dec4dceedda775e58dd541e08a116c6c53815c0bd028192f7b6268009b779b17422d0df92223018b32b4d1fa46e071723d6817e2486d003becc55f00f0c57e16840df040f15088dc2f81fe391c3923bec73e23a9662efc9c229c6a00a2646970667358221220a989e266fc6e42fe70f9fcb56c186b50ca5fd976194e1f7e7b038f741f1d6f9264736f6c634300081c0033",
  "linkReferences": {},
  "deployedLinkReferences": {}
}