{
  "_format": "hh-sol-artifact-1",
  "contractName": "AimStaking",
  "sourceName": "contracts/pool/AimStaking.sol",
  "abi": [
    {
      "inputs": [],
      "name": "AccessControlBadConfirmation",
      "type": "error"
    },
    {
      "inputs": [
        {
          "internalType": "address",
          "name": "account",
          "type": "address"
        },
        {
          "internalType": "bytes32",
          "name": "neededRole",
          "type": "bytes32"
        }
      ],
      "name": "AccessControlUnauthorizedAccount",
      "type": "error"
    },
    {
      "inputs": [],
      "name": "InvalidInitialization",
      "type": "error"
    },
    {
      "inputs": [],
      "name": "NotInitializing",
      "type": "error"
    },
    {
      "inputs": [],
      "name": "ReentrancyGuardReentrantCall",
      "type": "error"
    },
    {
      "anonymous": false,
      "inputs": [
        {
          "indexed": false,
          "internalType": "uint256",
          "name": "duration",
          "type": "uint256"
        }
      ],
      "name": "DurationOptionAdded",
      "type": "event"
    },
    {
      "anonymous": false,
      "inputs": [
        {
          "indexed": false,
          "internalType": "uint256",
          "name": "duration",
          "type": "uint256"
        }
      ],
      "name": "DurationOptionRemoved",
      "type": "event"
    },
    {
      "anonymous": false,
      "inputs": [
        {
          "indexed": false,
          "internalType": "uint256",
          "name": "stakeId",
          "type": "uint256"
        },
        {
          "indexed": true,
          "internalType": "address",
          "name": "user",
          "type": "address"
        },
        {
          "indexed": false,
          "internalType": "uint256",
          "name": "amount",
          "type": "uint256"
        }
      ],
      "name": "EmergencyUnstaked",
      "type": "event"
    },
    {
      "anonymous": false,
      "inputs": [
        {
          "indexed": false,
          "internalType": "uint64",
          "name": "version",
          "type": "uint64"
        }
      ],
      "name": "Initialized",
      "type": "event"
    },
    {
      "anonymous": false,
      "inputs": [
        {
          "indexed": false,
          "internalType": "bytes32",
          "name": "projectId",
          "type": "bytes32"
        }
      ],
      "name": "ProjectRegistered",
      "type": "event"
    },
    {
      "anonymous": false,
      "inputs": [
        {
          "indexed": true,
          "internalType": "bytes32",
          "name": "projectId",
          "type": "bytes32"
        },
        {
          "indexed": false,
          "internalType": "address",
          "name": "tokenAddress",
          "type": "address"
        }
      ],
      "name": "ProjectStakingTokenSet",
      "type": "event"
    },
    {
      "anonymous": false,
      "inputs": [
        {
          "indexed": false,
          "internalType": "bytes32",
          "name": "projectId",
          "type": "bytes32"
        }
      ],
      "name": "ProjectUnregistered",
      "type": "event"
    },
    {
      "anonymous": false,
      "inputs": [
        {
          "indexed": true,
          "internalType": "bytes32",
          "name": "role",
          "type": "bytes32"
        },
        {
          "indexed": true,
          "internalType": "bytes32",
          "name": "previousAdminRole",
          "type": "bytes32"
        },
        {
          "indexed": true,
          "internalType": "bytes32",
          "name": "newAdminRole",
          "type": "bytes32"
        }
      ],
      "name": "RoleAdminChanged",
      "type": "event"
    },
    {
      "anonymous": false,
      "inputs": [
        {
          "indexed": true,
          "internalType": "bytes32",
          "name": "role",
          "type": "bytes32"
        },
        {
          "indexed": true,
          "internalType": "address",
          "name": "account",
          "type": "address"
        },
        {
          "indexed": true,
          "internalType": "address",
          "name": "sender",
          "type": "address"
        }
      ],
      "name": "RoleGranted",
      "type": "event"
    },
    {
      "anonymous": false,
      "inputs": [
        {
          "indexed": true,
          "internalType": "bytes32",
          "name": "role",
          "type": "bytes32"
        },
        {
          "indexed": true,
          "internalType": "address",
          "name": "account",
          "type": "address"
        },
        {
          "indexed": true,
          "internalType": "address",
          "name": "sender",
          "type": "address"
        }
      ],
      "name": "RoleRevoked",
      "type": "event"
    },
    {
      "anonymous": false,
      "inputs": [
        {
          "indexed": false,
          "internalType": "uint256",
          "name": "stakeId",
          "type": "uint256"
        },
        {
          "indexed": true,
          "internalType": "address",
          "name": "user",
          "type": "address"
        },
        {
          "indexed": false,
          "internalType": "uint256",
          "name": "amount",
          "type": "uint256"
        },
        {
          "indexed": true,
          "internalType": "bytes32",
          "name": "projectId",
          "type": "bytes32"
        },
        {
          "indexed": false,
          "internalType": "uint256",
          "name": "duration",
          "type": "uint256"
        }
      ],
      "name": "Staked",
      "type": "event"
    },
    {
      "anonymous": false,
      "inputs": [
        {
          "indexed": false,
          "internalType": "uint256",
          "name": "stakeId",
          "type": "uint256"
        },
        {
          "indexed": true,
          "internalType": "address",
          "name": "user",
          "type": "address"
        },
        {
          "indexed": false,
          "internalType": "uint256",
          "name": "amount",
          "type": "uint256"
        }
      ],
      "name": "Unstaked",
      "type": "event"
    },
    {
      "inputs": [],
      "name": "DEFAULT_ADMIN_ROLE",
      "outputs": [
        {
          "internalType": "bytes32",
          "name": "",
          "type": "bytes32"
        }
      ],
      "stateMutability": "view",
      "type": "function"
    },
    {
      "inputs": [],
      "name": "MANAGER_ROLE",
      "outputs": [
        {
          "internalType": "bytes32",
          "name": "",
          "type": "bytes32"
        }
      ],
      "stateMutability": "view",
      "type": "function"
    },
    {
      "inputs": [
        {
          "internalType": "uint256",
          "name": "durationInDays",
          "type": "uint256"
        }
      ],
      "name": "addDurationOption",
      "outputs": [],
      "stateMutability": "nonpayable",
      "type": "function"
    },
    {
      "inputs": [
        {
          "internalType": "uint256",
          "name": "",
          "type": "uint256"
        }
      ],
      "name": "durationOptions",
      "outputs": [
        {
          "internalType": "bool",
          "name": "",
          "type": "bool"
        }
      ],
      "stateMutability": "view",
      "type": "function"
    },
    {
      "inputs": [
        {
          "internalType": "uint256",
          "name": "stakeId",
          "type": "uint256"
        }
      ],
      "name": "emergencyUnstake",
      "outputs": [],
      "stateMutability": "nonpayable",
      "type": "function"
    },
    {
      "inputs": [
        {
          "internalType": "address",
          "name": "user",
          "type": "address"
        }
      ],
      "name": "getActiveUserStakes",
      "outputs": [
        {
          "internalType": "uint256[]",
          "name": "",
          "type": "uint256[]"
        }
      ],
      "stateMutability": "view",
      "type": "function"
    },
    {
      "inputs": [
        {
          "internalType": "bytes32",
          "name": "projectId",
          "type": "bytes32"
        }
      ],
      "name": "getProjectStakes",
      "outputs": [
        {
          "internalType": "uint256[]",
          "name": "",
          "type": "uint256[]"
        }
      ],
      "stateMutability": "view",
      "type": "function"
    },
    {
      "inputs": [
        {
          "internalType": "bytes32",
          "name": "role",
          "type": "bytes32"
        }
      ],
      "name": "getRoleAdmin",
      "outputs": [
        {
          "internalType": "bytes32",
          "name": "",
          "type": "bytes32"
        }
      ],
      "stateMutability": "view",
      "type": "function"
    },
    {
      "inputs": [
        {
          "internalType": "bytes32",
          "name": "role",
          "type": "bytes32"
        },
        {
          "internalType": "uint256",
          "name": "index",
          "type": "uint256"
        }
      ],
      "name": "getRoleMember",
      "outputs": [
        {
          "internalType": "address",
          "name": "",
          "type": "address"
        }
      ],
      "stateMutability": "view",
      "type": "function"
    },
    {
      "inputs": [
        {
          "internalType": "bytes32",
          "name": "role",
          "type": "bytes32"
        }
      ],
      "name": "getRoleMemberCount",
      "outputs": [
        {
          "internalType": "uint256",
          "name": "",
          "type": "uint256"
        }
      ],
      "stateMutability": "view",
      "type": "function"
    },
    {
      "inputs": [
        {
          "internalType": "bytes32",
          "name": "role",
          "type": "bytes32"
        }
      ],
      "name": "getRoleMembers",
      "outputs": [
        {
          "internalType": "address[]",
          "name": "",
          "type": "address[]"
        }
      ],
      "stateMutability": "view",
      "type": "function"
    },
    {
      "inputs": [
        {
          "internalType": "address",
          "name": "user",
          "type": "address"
        }
      ],
      "name": "getUserStakes",
      "outputs": [
        {
          "internalType": "uint256[]",
          "name": "",
          "type": "uint256[]"
        }
      ],
      "stateMutability": "view",
      "type": "function"
    },
    {
      "inputs": [
        {
          "internalType": "bytes32",
          "name": "role",
          "type": "bytes32"
        },
        {
          "internalType": "address",
          "name": "account",
          "type": "address"
        }
      ],
      "name": "grantRole",
      "outputs": [],
      "stateMutability": "nonpayable",
      "type": "function"
    },
    {
      "inputs": [
        {
          "internalType": "bytes32",
          "name": "role",
          "type": "bytes32"
        },
        {
          "internalType": "address",
          "name": "account",
          "type": "address"
        }
      ],
      "name": "hasRole",
      "outputs": [
        {
          "internalType": "bool",
          "name": "",
          "type": "bool"
        }
      ],
      "stateMutability": "view",
      "type": "function"
    },
    {
      "inputs": [
        {
          "internalType": "address",
          "name": "admin",
          "type": "address"
        }
      ],
      "name": "initialize",
      "outputs": [],
      "stateMutability": "nonpayable",
      "type": "function"
    },
    {
      "inputs": [
        {
          "internalType": "bytes32",
          "name": "",
          "type": "bytes32"
        }
      ],
      "name": "projectStakingTokens",
      "outputs": [
        {
          "internalType": "address",
          "name": "",
          "type": "address"
        }
      ],
      "stateMutability": "view",
      "type": "function"
    },
    {
      "inputs": [
        {
          "internalType": "bytes32",
          "name": "projectId",
          "type": "bytes32"
        }
      ],
      "name": "registerProject",
      "outputs": [],
      "stateMutability": "nonpayable",
      "type": "function"
    },
    {
      "inputs": [
        {
          "internalType": "bytes32",
          "name": "",
          "type": "bytes32"
        }
      ],
      "name": "registeredProjects",
      "outputs": [
        {
          "internalType": "bool",
          "name": "",
          "type": "bool"
        }
      ],
      "stateMutability": "view",
      "type": "function"
    },
    {
      "inputs": [
        {
          "internalType": "uint256",
          "name": "durationInDays",
          "type": "uint256"
        }
      ],
      "name": "removeDurationOption",
      "outputs": [],
      "stateMutability": "nonpayable",
      "type": "function"
    },
    {
      "inputs": [
        {
          "internalType": "bytes32",
          "name": "role",
          "type": "bytes32"
        },
        {
          "internalType": "address",
          "name": "callerConfirmation",
          "type": "address"
        }
      ],
      "name": "renounceRole",
      "outputs": [],
      "stateMutability": "nonpayable",
      "type": "function"
    },
    {
      "inputs": [
        {
          "internalType": "bytes32",
          "name": "role",
          "type": "bytes32"
        },
        {
          "internalType": "address",
          "name": "account",
          "type": "address"
        }
      ],
      "name": "revokeRole",
      "outputs": [],
      "stateMutability": "nonpayable",
      "type": "function"
    },
    {
      "inputs": [
        {
          "internalType": "bytes32",
          "name": "projectId",
          "type": "bytes32"
        },
        {
          "internalType": "address",
          "name": "stakingTokenAddress",
          "type": "address"
        }
      ],
      "name": "setProjectStakingToken",
      "outputs": [],
      "stateMutability": "nonpayable",
      "type": "function"
    },
    {
      "inputs": [
        {
          "internalType": "uint256",
          "name": "amount",
          "type": "uint256"
        },
        {
          "internalType": "uint256",
          "name": "durationInDays",
          "type": "uint256"
        },
        {
          "internalType": "bytes32",
          "name": "projectId",
          "type": "bytes32"
        }
      ],
      "name": "stake",
      "outputs": [],
      "stateMutability": "nonpayable",
      "type": "function"
    },
    {
      "inputs": [
        {
          "internalType": "uint256",
          "name": "",
          "type": "uint256"
        }
      ],
      "name": "stakes",
      "outputs": [
        {
          "internalType": "uint256",
          "name": "stakeId",
          "type": "uint256"
        },
        {
          "internalType": "address",
          "name": "user",
          "type": "address"
        },
        {
          "internalType": "uint256",
          "name": "amount",
          "type": "uint256"
        },
        {
          "internalType": "bytes32",
          "name": "projectId",
          "type": "bytes32"
        },
        {
          "internalType": "address",
          "name": "stakingToken",
          "type": "address"
        },
        {
          "internalType": "uint256",
          "name": "stakedAt",
          "type": "uint256"
        },
        {
          "internalType": "uint256",
          "name": "duration",
          "type": "uint256"
        },
        {
          "internalType": "uint256",
          "name": "unlockedAt",
          "type": "uint256"
        },
        {
          "internalType": "enum AimStaking.StakeStatus",
          "name": "status",
          "type": "uint8"
        }
      ],
      "stateMutability": "view",
      "type": "function"
    },
    {
      "inputs": [
        {
          "internalType": "bytes4",
          "name": "interfaceId",
          "type": "bytes4"
        }
      ],
      "name": "supportsInterface",
      "outputs": [
        {
          "internalType": "bool",
          "name": "",
          "type": "bool"
        }
      ],
      "stateMutability": "view",
      "type": "function"
    },
    {
      "inputs": [
        {
          "internalType": "bytes32",
          "name": "projectId",
          "type": "bytes32"
        }
      ],
      "name": "unregisterProject",
      "outputs": [],
      "stateMutability": "nonpayable",
      "type": "function"
    },
    {
      "inputs": [
        {
          "internalType": "uint256",
          "name": "stakeId",
          "type": "uint256"
        }
      ],
      "name": "unstake",
      "outputs": [],
      "stateMutability": "nonpayable",
      "type": "function"
    }
  ],
  "bytecode": "0x6080806040523461001657611c4c908161001c8239f35b600080fdfe6080604052600436101561001257600080fd5b60003560e01c8063012ce5011461136157806301ffc9a7146112f157806312d43ae91461127b57806321897cdd146111bf578063248a9ca31461118357806325eda7771461114f5780632ad9b0d814610fcd5780632e17de7814610e755780632f2ff15d14610df357806336568abe14610dac5780633d0a42e714610a3f578063557925d714610985578063842e29811461090d5780639010d07c146108b957806391d148541461085f5780639770cd491461082e578063a217fddf14610812578063a3246ad314610756578063baea56b114610725578063c4d66de814610520578063ca15c873146104e7578063d547741f14610499578063d5a44f86146103e6578063df54e4a3146102f1578063ec87621c146102c8578063f2c2ea17146101c45763f7e72b8d1461014557600080fd5b346101bf576020806003193601126101bf5760043560005260038152604060002090604051908181845491828152019360005281600020916000905b8282106101a8576101a485610198818903826119c8565b604051918291826114ad565b0390f35b835486529485019460019384019390910190610181565b600080fd5b346101bf576020806003193601126101bf57600435906101e26114e8565b811561028457816000526005815260ff6040600020541661024057817f457e95d580cfbe0319df538ce61e492cefc12446b52b09b5ae5122cf32efda7892600052600582526040600020600160ff19825416179055604051908152a1005b6064906040519062461bcd60e51b82526004820152601e60248201527f4475726174696f6e206f7074696f6e20616c72656164792065786973747300006044820152fd5b6064906040519062461bcd60e51b82526004820152601960248201527f4475726174696f6e206d75737420626520706f736974697665000000000000006044820152fd5b346101bf5760003660031901126101bf576020604051600080516020611bb78339815191528152f35b346101bf5760403660031901126101bf5760043561030d611497565b6103156114e8565b81600052600460205261032f60ff60406000205416611a2b565b6001600160a01b0316801561038f5760207f8c6cd15b4c6cc3725c46b7b687badd0b58c0507927aa7cc0431d6c5be44122689183600052600082526040600020816bffffffffffffffffffffffff60a01b825416179055604051908152a2005b60405162461bcd60e51b815260206004820152602960248201527f41696d5374616b696e673a20496e76616c6964207374616b696e6720746f6b656044820152686e206164647265737360b81b6064820152608490fd5b346101bf5760203660031901126101bf5760043560005260016020526040600020805460018060a01b0391826001820154169260028201549060038301549060048401541660058401549160068501549360ff600860078801549701541697604051978852602088015260408701526060860152608085015260a084015260c083015260e082015260038210156104835761012091610100820152f35b634e487b7160e01b600052602160045260246000fd5b346101bf5760403660031901126101bf576104e56004356104b8611497565b9080600052600080516020611bd78339815191526020526104e0600160406000200154611550565b61175a565b005b346101bf5760203660031901126101bf57600435600052600080516020611b978339815191526020526020604060002054604051908152f35b346101bf5760203660031901126101bf57610539611481565b7ff0c57e16840df040f15088dc2f81fe391c3923bec73e23a9662efc9c229c6a009081549060ff8260401c16159167ffffffffffffffff81168015908161071d575b6001149081610713575b15908161070a575b506106f85767ffffffffffffffff1981166001178455826106d9575b506105b26119ea565b6105ba6119ea565b6001600080516020611bf7833981519152556105d581611583565b61068a575b6105e381611623565b61062c575b506105ef57005b68ff00000000000000001981541690557fc7f505b2f371ae2175ee4913f4499e1f2633a7b5936321eed1cdaeb6115181d2602060405160018152a1005b600080516020611bb7833981519152600052600080516020611b97833981519152602052610683906001600160a01b03167f4100344b6aa56dacd4c22fd3b2e50ba7459cdb2cf0a0bdb443a7a9a08e239af6611853565b50826105e8565b60008052600080516020611b978339815191526020526106d36001600160a01b0382167f615f0f9e84155bea8cc509fe18befeb1baf65611e38a6ba60964480fb29dfd44611853565b506105da565b68ffffffffffffffffff191668010000000000000001178355836105a9565b60405163f92ee8a960e01b8152600490fd5b9050158561058d565b303b159150610585565b84915061057b565b346101bf5760203660031901126101bf576004356000526005602052602060ff604060002054166040519015158152f35b346101bf576020806003193601126101bf57600435600052600080516020611b978339815191528152604060002060405190818382549182815201908192600052846000209060005b868282106107fe5786866107b5828803836119c8565b604051928392818401908285525180915260408401929160005b8281106107de57505050500390f35b83516001600160a01b0316855286955093810193928101926001016107cf565b83548552909301926001928301920161079f565b346101bf5760003660031901126101bf57602060405160008152f35b346101bf5760203660031901126101bf576004356000526004602052602060ff604060002054166040519015158152f35b346101bf5760403660031901126101bf57610878611497565b600435600052600080516020611bd783398151915260205260406000209060018060a01b0316600052602052602060ff604060002054166040519015158152f35b346101bf5760403660031901126101bf57600435600052600080516020611b9783398151915260205260206108f46024356040600020611825565b905460405160039290921b1c6001600160a01b03168152f35b346101bf576020806003193601126101bf576001600160a01b0361092f611481565b1660005260028152604060002090604051908181845491828152019360005281600020916000905b82821061096e576101a485610198818903826119c8565b835486529485019460019384019390910190610957565b346101bf5760203660031901126101bf576004356109a16114e8565b80600052600560205260ff60406000205416156109fa576020817ff278be4ce3ce798f71a002b9ba81aa1a12f71adf91e51c3ab61c4d2113aac5189260005260058252604060002060ff198154169055604051908152a1005b60405162461bcd60e51b815260206004820152601960248201527f4475726174696f6e206f7074696f6e206e6f7420666f756e64000000000000006044820152606490fd5b346101bf5760603660031901126101bf57604435600435602435610a61611abd565b8115610d725780600052600560205260ff6040600020541615610d3a57826000526004602052610a9860ff60406000205416611a2b565b6000838152602081905260409020546001600160a01b0316918215610ceb576040516323b872dd60e01b8152336004820152306024820152604481018290526020816064816000885af18015610cdf57610cb0575b50610af9600654611a88565b92836006556201518092838102938185041490151715610c9a57824201804211610c9a576040519161012083019083821067ffffffffffffffff831117610c84576101009260089260405287855260208501338152604086019287845260608701918b83526080880191825260a088019242845260c08901948b865260e08a01526000888a01528b600052600160205260406000209589518755600187019260018060a01b03905116926bffffffffffffffffffffffff60a01b9384825416179055516002870155516003860155600485019160018060a01b039051169082541617905551600583015551600682015560e084015160078201550191015160038110156104835760ff80198354169116179055336000526002602052610c23836040600020611a97565b836000526003602052610c3a836040600020611a97565b604051928352602083015260408201527ffda8c7d12127b202625951152f195c7a03f457f2b1fdcff320a6095e99fcd1f960603392a36001600080516020611bf783398151915255005b634e487b7160e01b600052604160045260246000fd5b634e487b7160e01b600052601160045260246000fd5b610cd19060203d602011610cd8575b610cc981836119c8565b810190611a70565b5084610aed565b503d610cbf565b6040513d6000823e3d90fd5b60405162461bcd60e51b815260206004820152602160248201527f5374616b696e6720746f6b656e206e6f742073657420666f722070726f6a65636044820152601d60fa1b6064820152608490fd5b60405162461bcd60e51b815260206004820152601060248201526f24b73b30b634b210323ab930ba34b7b760811b6044820152606490fd5b60405162461bcd60e51b81526020600482015260126024820152710416d6f756e74206d757374206265203e20360741b6044820152606490fd5b346101bf5760403660031901126101bf57610dc5611497565b336001600160a01b03821603610de1576104e59060043561175a565b60405163334bd91960e11b8152600490fd5b346101bf5760403660031901126101bf57600435610e0f611497565b81600052600080516020611bd7833981519152602052610e36600160406000200154611550565b610e4081836116d3565b610e4657005b6000918252600080516020611b9783398151915260205260409091206104e5916001600160a01b031690611853565b346101bf576020806003193601126101bf5760043590610e93611abd565b8160005260018152604060002060018060a01b03610eb8816001840154163314611aed565b60088201805460ff8116600381101561048357610ed59015611b2b565b60078401544210610f935760ff19166001179055600482810154600293909301805460405163a9059cbb60e01b8152339381019390935260248301529290918491839116816000816044810103925af18015610cdf57610f76575b5054906040519283528201527f37375b03d8924bd8f076f11f8411b9962aa5c02fb489021507bc6bb6f850e36560403392a26001600080516020611bf783398151915255005b610f8c90833d8511610cd857610cc981836119c8565b5083610f30565b60405162461bcd60e51b815260048101869052601260248201527114dd185ad9481cdd1a5b1b081b1bd8dad95960721b6044820152606490fd5b346101bf576020806003193601126101bf576001600160a01b03610fef611481565b16600052600281526040600020604051808284829454938481520190600052846000209260005b86828210611139578461102b818603826119c8565b60009160005b825181101561108a576110448184611b6a565b516000526001825260ff6008604060002001541660038110156104835715611075575b61107090611a88565b611031565b9261108261107091611a88565b939050611067565b508261109581611b7e565b906110a360405192836119c8565b8082526110b2601f1991611b7e565b0136838301376000805b845181101561112b576110cf8186611b6a565b516000526001845260ff6008604060002001541660038110156104835715611100575b6110fb90611a88565b6110bc565b906111236110fb916111128488611b6a565b5161111d8287611b6a565b52611a88565b9190506110f2565b604051806101a485826114ad565b8554845260019586019587955093019201611016565b346101bf5760203660031901126101bf576004356000526000602052602060018060a01b0360406000205416604051908152f35b346101bf5760203660031901126101bf57600435600052600080516020611bd78339815191526020526020600160406000200154604051908152f35b346101bf5760203660031901126101bf576004356111db6114e8565b80600052600460205260ff60406000205416611236576020817ff65f77413af114e41a04869979e1c1fc91eab4c12feab396cfd1610389db6dab92600052600482526040600020600160ff19825416179055604051908152a1005b60405162461bcd60e51b815260206004820152601a60248201527f50726f6a65637420616c726561647920726567697374657265640000000000006044820152606490fd5b346101bf5760203660031901126101bf577f42ae85fa6215678269ae7bc130c9cbddbc56e4bf7a6af1b1b913df7f0a4036e860206004356112ba6114e8565b80600052600482526112d360ff60406000205416611a2b565b8060005260048252604060002060ff198154169055604051908152a1005b346101bf5760203660031901126101bf5760043563ffffffff60e01b81168091036101bf57602090635a05180f60e01b8114908115611336575b506040519015158152f35b637965db0b60e01b811491508115611350575b508261132b565b6301ffc9a760e01b14905082611349565b346101bf576020806003193601126101bf576004359061137f611abd565b8160005260018152604060002060018060a01b036113a4816001840154163314611aed565b60088201805460ff8116906003821015610483576000938693600280936113ce61140f9615611b2b565b60ff191617905560048681015492909601805460405163a9059cbb60e01b815233988101989098526024880152959485939190921691839182906044820190565b03925af18015610cdf57611464575b5054906040519283528201527f7e57bf75f7b88145c77b9823b88304864cc96adf3623d6e8b23accc7eee372c360403392a26001600080516020611bf783398151915255005b61147a90833d8511610cd857610cc981836119c8565b508361141e565b600435906001600160a01b03821682036101bf57565b602435906001600160a01b03821682036101bf57565b6020908160408183019282815285518094520193019160005b8281106114d4575050505090565b8351855293810193928101926001016114c6565b3360009081527f06484cc59dc38e4f67c31122333a17ca81b3ca18cdf02bfc298072fa52b0316a6020526040902054600080516020611bb78339815191529060ff16156115325750565b6044906040519063e2517d3f60e01b82523360048301526024820152fd5b80600052600080516020611bd783398151915260205260406000203360005260205260ff60406000205416156115325750565b6001600160a01b031660008181527fb7db2dd08fcb62d0c9e08c51941cae53c267786a0b75803fb7960902fc8ef97d6020526040812054909190600080516020611bd78339815191529060ff1661161e578280526020526040822081835260205260408220600160ff1982541617905533917f2f8788117e7eff1d82e926ec794901d17c78024a50270940304540a733656f0d8180a4600190565b505090565b6001600160a01b031660008181527f06484cc59dc38e4f67c31122333a17ca81b3ca18cdf02bfc298072fa52b0316a6020526040812054909190600080516020611bb783398151915290600080516020611bd78339815191529060ff166116cd578184526020526040832082845260205260408320600160ff198254161790557f2f8788117e7eff1d82e926ec794901d17c78024a50270940304540a733656f0d339380a4600190565b50505090565b90600091808352600080516020611bd783398151915280602052604084209260018060a01b03169283855260205260ff604085205416156000146116cd578184526020526040832082845260205260408320600160ff198254161790557f2f8788117e7eff1d82e926ec794901d17c78024a50270940304540a733656f0d339380a4600190565b61176482826117a2565b918261176f57505090565b6000918252600080516020611b97833981519152602052604090912061179e916001600160a01b0316906118d8565b5090565b90600091808352600080516020611bd783398151915280602052604084209260018060a01b03169283855260205260ff6040852054166000146116cd57818452602052604083208284526020526040832060ff1981541690557ff6391f5c32d9c69d2a47ea670b442974b53935d1edc7fd64eb21e047a839171b339380a4600190565b805482101561183d5760005260206000200190600090565b634e487b7160e01b600052603260045260246000fd5b919060018301600090828252806020526040822054156000146118d257845494600160401b8610156118be57836118ae611897886001604098999a01855584611825565b819391549060031b91821b91600019901b19161790565b9055549382526020522055600190565b634e487b7160e01b83526041600452602483fd5b50925050565b906001820190600092818452826020526040842054908115156000146119c157600019918083018181116119ad5782549084820191821161199957818103611964575b50505080548015611950578201916119338383611825565b909182549160031b1b191690555582526020526040812055600190565b634e487b7160e01b86526031600452602486fd5b6119846119746118979386611825565b90549060031b1c92839286611825565b9055865284602052604086205538808061191b565b634e487b7160e01b88526011600452602488fd5b634e487b7160e01b87526011600452602487fd5b5050505090565b90601f8019910116810190811067ffffffffffffffff821117610c8457604052565b60ff7ff0c57e16840df040f15088dc2f81fe391c3923bec73e23a9662efc9c229c6a005460401c1615611a1957565b604051631afcd79f60e31b8152600490fd5b15611a3257565b60405162461bcd60e51b8152602060048201526016602482015275141c9bda9958dd081b9bdd081c9959da5cdd195c995960521b6044820152606490fd5b908160209103126101bf575180151581036101bf5790565b6000198114610c9a5760010190565b805490600160401b821015610c845781611897916001611ab994018155611825565b9055565b600080516020611bf78339815191526002815414611adb5760029055565b604051633ee5aeb560e01b8152600490fd5b15611af457565b60405162461bcd60e51b815260206004820152600f60248201526e2737ba1039ba30b5b29037bbb732b960891b6044820152606490fd5b15611b3257565b60405162461bcd60e51b815260206004820152601060248201526f5374616b65206e6f742061637469766560801b6044820152606490fd5b805182101561183d5760209160051b010190565b67ffffffffffffffff8111610c845760051b6020019056fec1f6fe24621ce81ec5827caf0253cadb74709b061630e6b55e82371705932000241ecf16d79d0f8dbfb92cbc07fe17840425976cf0667f022fe9877caa831b0802dd7bc7dec4dceedda775e58dd541e08a116c6c53815c0bd028192f7b6268009b779b17422d0df92223018b32b4d1fa46e071723d6817e2486d003becc55f00a264697066735822122087ba426590a80596c60c464173ae6a13d00f44b6ee45bd30376ea7780135264d64736f6c63430008150033",
  "linkReferences": {},
  "deployedLinkReferences": {}
}